:100000000C942A000C943C000C943C000C943C0092
:100010000C943C000C942C010C9459010C9480011C
:100020000C94A7010C943C000C943C000C943C00F4
:100030000C943C000C943C000C943C000C943C0050
:100040000C943C000C946F020C943C000C943C000B
:100050000C943C0011241FBECFE5D4E0DEBFCDBF21
:1000600010E0A0E6B0E001C01D92A139B107E1F7B0
:100070000E9445060C9453060C94000080937D006A
:1000800008959FB59F739FBD9FB58295880F880F78
:10009000807C982B9FBD08959FB59F7C9FBD9FB589
:1000A0008295807F982B9FBD08958FB588608FBD06
:1000B00008958FB584608FBD08959EB59F779EBDCE
:1000C0009EB5879588278795982B9EBD08959EB5E8
:1000D0009F7B9EBD9EB58295880F880F807C982B54
:1000E0009EBD80E288BF0895282F8FB5807F8FBD89
:1000F0008EB5877E8EBD9FB5822F8370892B8FBD75
:100100009EB5822F8C70880F892B8EBD1092600057
:1001100010926100283010F4243051F481E0809373
:10012000600020FD02C0243019F481E0809361005A
:1001300008959C0180916000813011F081E0089564
:1001400080916100813021F43BBD2ABD80E008959B
:1001500037BD26BD80E008959C0180916100882311
:1001600011F081E008953BBD2ABD80E0089599BD5E
:1001700088BD08952CB53DB5C90108959DBD8CBDC0
:100180000895E82FF0E0EE0FFF1FE658FF4F718350
:100190006083089589B719BE8EB5887F8EBD1DBC5A
:1001A0001CBC85E080937D0084E00E9474008091F7
:1001B0006000813069F480916100813029F488E029
:1001C0009DE39BBD8ABD04C088E09DE397BD86BDCD
:1001D00080916100882311F41BBC1ABC19BC18BCA7
:1001E0008FB58F738FBD8FB580648FBD8FB58F7CBA
:1001F0008FBD8FB580628FBD8EB58F778EBD8EB56A
:100200008EBD8EB58F7B8EBD8EB580648EBD80E237
:1002100088BF88B78C6388BF89B789BF89B7806179
:1002200089BF89B789BF89B789BF08958FB51FBCBA
:100230008EB51EBC8CB59DB51DBC1CBC8AB59BB5CE
:100240001BBC1ABC88B599B519BC18BC89B719BEB6
:1002500088B78FEF88BF08951F920F920FB60F9245
:1002600011242F933F934F935F936F937F938F93BB
:100270009F93AF93BF93EF93FF9386B597B59093FA
:10028000630080936200E0918400F09185000995FD
:10029000FF91EF91BF91AF919F918F917F916F915E
:1002A0005F914F913F912F910F900FBE0F901F9034
:1002B00018951F920F920FB60F9211242F933F9310
:1002C0004F935F936F937F938F939F93AF93BF935E
:1002D000EF93FF93E0918200F09183000995FF91E5
:1002E000EF91BF91AF919F918F917F916F915F91AE
:1002F0004F913F912F910F900FBE0F901F90189527
:100300001F920F920FB60F9211242F933F934F938A
:100310005F936F937F938F939F93AF93BF93EF936D
:10032000FF93E0918000F09181000995FF91EF919A
:10033000BF91AF919F918F917F916F915F914F91FD
:100340003F912F910F900FBE0F901F9018951F9205
:100350000F920FB60F9211242F933F934F935F93F9
:100360006F937F938F939F93AF93BF93EF93FF937D
:10037000E0917E00F0917F000995FF91EF91BF9190
:10038000AF919F918F917F916F915F914F913F912D
:100390002F910F900FBE0F901F9018958AEA82B987
:1003A00086E080B9089A099885E886BF8091880020
:1003B000807F80938800A098A198A89AA99A089510
:1003C00080E886BF80918800807F809388000895B0
:1003D000FC0150918800852F8695817090E0252F33
:1003E000217030E0822B932B892B11F081E008954E
:1003F00051605093880040938700660F60936500BA
:10040000F0936800E093670086B78F7E86BF86B75B
:10041000806286BF80E00895FC0150918800852F9E
:100420008695817090E0252F217030E0822B932BF0
:10043000892B11F081E00895526050938800409319
:100440008600660F616060936500F0936A00E09338
:10045000690086B78F7E86BF86B7806286BF80E0E0
:1004600008959C018091880082FF02C081E0089578
:1004700084608093880081E080936F00609389009E
:1004800030936C0020936B0086B7806486BF80E059
:1004900008959C018091880082FF02C081E0089548
:1004A00088608093880081E080936F0060938A0069
:1004B00030936E0020936D0086B7806486BF80E025
:1004C0000895817092B19E7F982B92B9089586B756
:1004D000806186BF089586B7806486BF08951F92A5
:1004E0000F920FB60F9211242F933F934F935F9368
:1004F0006F937F938F939F93AF93BF93EF93FF93EC
:1005000081B1887F8093700080917000803609F4FB
:10051000F9C0813670F5883209F479C0893298F4CF
:10052000803109F459C0813138F4882309F452C06C
:10053000883009F05CC150C0883109F455C0803260
:1005400009F055C182C0803409F48DC0813438F47B
:10055000803309F481C0883309F049C180C08035F7
:1005600009F49BC0883509F4ACC0883409F03FC158
:1005700086C0883909F4E2C08939B0F4883709F4B3
:10058000BCC0893738F4883609F4B7C0803709F021
:100590002EC1B8C0883809F4D1C0803909F4BAC076
:1005A000803809F024C1B6C0803B09F4EEC0813B1D
:1005B00038F4803A09F4DDC0883A09F018C1EAC07D
:1005C000803C09F404C1883C09F401C1883B09F06E
:1005D0000EC1E2C085E90AC11092660080916500F3
:1005E00083B986B78F7D02C1A0916700B091680082
:1005F00080916600FD01E80FF11D80818093640009
:1006000080916600A80FB11D8C9183B9F0C08091D4
:1006100066008F5F809366009091660080918700EE
:10062000981798F4A0916700B091680080916600D7
:10063000FD01E80FF11D80818093640080916600C8
:10064000A80FB11D8C9183B922C086B7806186BF87
:10065000809188008E7F19C086B7806186BF8091A7
:1006600088008E7F83C090918600923008F4ACC0E1
:1006700086B7806486BF915090938600B8C086B7D5
:10068000806186BF809188008C7F80938800E09194
:100690007100F09172000995AAC08091660093B133
:1006A000E0916900F0916A00E80FF11D908380915C
:1006B00066008F5F8093660090916600809186004F
:1006C0007EC08091660093B1E0916900F0916A006C
:1006D000E80FF11D908390916F0091709295990FA2
:1006E000990F907C86B78F7B892B86BF86B78061F8
:1006F00086BF809188008D7FC8CF809188008C7FD5
:10070000809388001092660080918A00823008F001
:1007100058C05AC08091660093B1E0916D00F0918D
:100720006E00E80FF11D9083809166008F5F8093CB
:1007300066009091660080918A0041C080916600B9
:1007400093B1E0916D00F0916E00E80FF11D908380
:1007500090916F0091709295990F990F907C86B748
:100760008F7B892B86BF80918800877F809388004C
:100770003EC080916F0081708295880F880F807CC9
:1007800096B79F7B982B96BFEECF809188008C7F89
:10079000809388001092660080916600E0916B0063
:1007A000F0916C00E80FF11D808183B980916600A3
:1007B0008F5F809366009091660080918900981702
:1007C00018F486B7806412C086B78F7B0FC0809103
:1007D00088008B7F8093880090916F009170929534
:1007E000990F990F907C86B78F7B892B86BF86B730
:1007F000806886BFFF91EF91BF91AF919F918F91DC
:100800007F916F915F914F913F912F910F900FBE0C
:100810000F901F90189595B79F7095BF95B7982B1F
:1008200095BF889585B78F7085BF089584B794B7B5
:1008300094BF8F710895A89581B5886181BD81B5F8
:10084000877F81BD089591B5987F91BD91B5982B13
:1008500091BD08959BB79C7F811192608BB7816099
:100860008BBF9BBF08959C0180917300882311F07A
:1008700081E0089581E08093750030938E0020938D
:100880008D006093900040938F0080E00895382F92
:10089000DA0180917300882311F081E0089581E0EE
:1008A00080937300809171009091720090938C00FE
:1008B00080938B008FE894E0909372008093710096
:1008C000306530937C002E5F20937B002250FB012B
:1008D00070937A00609379009181222341F48081A2
:1008E0009083E0917900F0917A0081830CC09C9311
:1008F000E0917900F0917A00808111968C93509369
:100900007A00409379008091790090917A0060910B
:100910007C0040917B000E94E80180E00895809176
:100920007000883409F447C0893430F4803241F0D3
:10093000883209F061C010C0883509F05DC046C03A
:1009400000008091790090917A0060917C00409144
:100950007B000E94E80108959091660080917B00E1
:10096000981709F049C080917400813069F4809132
:1009700076009091770060917C00409178000E9411
:100980000C0210927400089510927300809175000B
:10099000813091F510927500E0918D00F0918E00FC
:1009A000208180918F00909190008923282B809541
:1009B000282320830895809176009091770060919C
:1009C0007C00409178000E940C0208951092730000
:1009D00080917500813081F410927500E0918D0056
:1009E000F0918E00208180918F009091900089235A
:1009F000282B8095282320830895382FFB01809190
:100A00007300882311F081E0089571E07093730002
:100A1000809171009091720090938C0080938B0074
:100A20008FE894E09093720080937100632F60656B
:100A300060937C0020937800509377004093760079
:100A40003097E9F07093740082E080937B00F0931C
:100A50007A00E0937900908181818083E091790030
:100A6000F0917A0091838091790090917A00609161
:100A70007C0040917B000E94E80180E00895CA015B
:100A8000422F0E940C0280E00895E19B02C081E0A9
:100A90000895F8949FBB8EBB6DBBE29AE19A78945F
:100AA00080E00895FB01E19B02C081E00895F89485
:100AB0009FBB8EBBE09A8DB38083789480E00895CD
:100AC0001ABA17BA14BA11BA1BBA18BA15BA12BAA6
:100AD0008AB78ABF8BB78F718BBF8BB78BBF85B738
:100AE0008C7F85BF85B7836085BF85B7837F85BFD2
:100AF00085B78C6085BF84B7806484BF80B78B7FE7
:100B000080BF0895E82FE695E695E69593E0E99F86
:100B1000F001112493AD877021E030E0082E02C06F
:100B2000220F331F0A94E2F72095922301C0660F2B
:100B30008A95EAF7962B93AF0895282FE82FE6952C
:100B4000E695E69583E0E89FF001112481AD90E001
:100B5000277002C0959587952A95E2F781700895D0
:100B6000E82FE695E695E69593E0E99FF0011124DC
:100B700093AD877021E030E002C0220F331F8A95C9
:100B8000E2F7922793AF089593E0899FF001112433
:100B900063AF089593E0899FF001112481AD08951A
:100BA00093E0899FF001112483AD809583AF089570
:100BB00093E0899FF001112483AD942F90958923B0
:100BC0004623842B83AF089593E0899FF00111247D
:100BD00081AD8623089593E0899FF001112483ADB0
:100BE000862783AF0895E82FE695E695E69593E08E
:100BF000E99FF001112492AD877021E030E0082ECA
:100C000002C0220F331F0A94E2F72095922301C0FD
:100C1000660F8A95EAF7962B92AF089593E0899F25
:100C2000F001112462AF089593E0899FF00111242F
:100C300083AD942F909589234623842B82AF08950A
:100C4000813079F0813018F08230D1F411C084B74E
:100C500061706295660F660F607C8F7B862B84BF08
:100C6000089585B78C7F85BF85B7862B85BF08958E
:100C700085B7837F85BF85B7660F660F862B85BFD7
:100C800008958BB380958BBB089578940E94CA0019
:100C900084E061E476E00E94C1008EB590917D0011
:0A0CA000892B8EBDFFCFF894FFCF23
:00000001FF
